:020000020000FC
:020000000AC034
:10000A00A5C03F065B4F666D7D077F6F00270ABD5F
:10001A00056003BF02E602BF0027026009BF7894A9
:10002A000027009364000093650000936600009324
:10003A006700F0E0ECE000916400E00FC8950092E0
:10004A006000F0E0ECE000916500E00FC8950092D6
:10005A006100F0E0ECE000916600E00FC8950092C4
:10006A006200F0E0ECE000916700E00FC8950092B2
:10007A006300F8941DD003D078943ED0DACF00E420
:10008A001AD023D01DD000EC16D01FD000916300E7
:10009A001CD00091620019D00091610016D0009125
:1000AA00600013D00DD00AE806D00FD009D0089509
:1000BA00B89AB99A0895C09AC19AC198C0980895F1
:1000CA00C098C198C09AC19A08951127183061F052
:1000DA00C09800FD02C0C19801C0C19AC09A069595
:1000EA00139500000000F2CFC098B998C09A00009A
:1000FA000000B99AC1980895009164000A3009F085
:10010A0008950027009364000091650003950A3062
:10011A0019F0009365000895002700936500009187
:10012A00660003950A3019F00093660008950027C7
:10013A00009366000091670003950A3019F0009356
:10014A006700089500270093670008952FB720934A
:10015A0068002091640023952093640022E622BF60
:08016A00209168002FBF1895D9
:00000001FF
