:020000020000FC
:020000000AC034
:10000A0050C03F065B4F666D7D077F6FF0E0ECE006
:10001A0024D0C895009260000092610000926200AC
:10002A000092630001D0F4CF00E41AD023D01DD08F
:10003A0000EC16D01FD0009160001CD00091610026
:10004A0019D00091620016D00091630013D00DD030
:10005A000AE806D00FD009D00895B89AB99A089537
:10006A00C09AC19AC198C0980895C098C198C09A78
:10007A00C19A08951127183061F0C09800FD02C096
:10008A00C19801C0C19AC09A069513950000000054
:10009A00F2CFC098B998C09A00000000B99AC198E6
:0200AA000895B7
:00000001FF
